:020000040000FA
:020000000328D3
:040002000034003492
:0A00060021003030990022008C0127
:10001000210030308C0023008C0124008C00220051
:100020008D01210070308D0023008D0124008D0092
:1000300022008E01210000308E0023008E0121005D
:10004000073095002000803098000230F2003C30EC
:10005000F10020009601970118142000950120005E
:100060000B110B1D31282000181020009708031DCC
:1000700045281608EB3E0318452822008E10F20B87
:100080004928F20A0130F0004B2822008E14023079
:10009000F2000030F000200001300C1AF0000030B7
:1000A0000D1E013E8D1E013E0D1F013E003E031D33
:1000B0005C283C30F1002928F103031963287007FC
:0E00C000FE3E031C292822000E148E10662816
:020000040001F9
:02000E00C43FED
:02001000FF1FD0
:00000001FF
