:020000009C2B37
:1007380021003030990022008C01210030308C00DB
:1007480023008C0124008C0022008D0121007030D0
:100758008D0023008D0124008D0022008E012100D0
:1007680000308E0023008E01210007309500200004
:10077800803098000230F2003C30F10020009601F1
:10078800970118142000950120000B110B1DCA2B8E
:100798002000181020009708031DDE2B1608F53ED0
:1007A8000318DE2B22008E10F20BE22BF20A013026
:1007B800F000E42B22008E140230F2000030F0002A
:1007C800200001300C1AF00000300D1E013E8D1E75
:1007D800013E0D1F013E003E031DF52B3C30F1008C
:1007E800C22BF1030319FC2B7007FE3E031CC22B1E
:0807F80022000E148E10FF2BED
:020000040001F9
:04000E00C43FFF1FCD
:00000001FF
